{
  "_format": "hh-sol-artifact-1",
  "contractName": "Crowdfunding",
  "sourceName": "contracts/CrowdFunding.sol",
  "abi": [
    {
      "inputs": [
        {
          "internalType": "uint256",
          "name": "_fundingGoal",
          "type": "uint256"
        },
        {
          "internalType": "uint256",
          "name": "_deadline",
          "type": "uint256"
        }
      ],
      "stateMutability": "nonpayable",
      "type": "constructor"
    },
    {
      "anonymous": false,
      "inputs": [
        {
          "indexed": true,
          "internalType": "address",
          "name": "contributor",
          "type": "address"
        },
        {
          "indexed": false,
          "internalType": "uint256",
          "name": "amount",
          "type": "uint256"
        }
      ],
      "name": "Contribution",
      "type": "event"
    },
    {
      "anonymous": false,
      "inputs": [],
      "name": "Paused",
      "type": "event"
    },
    {
      "anonymous": false,
      "inputs": [
        {
          "indexed": true,
          "internalType": "address",
          "name": "contributor",
          "type": "address"
        },
        {
          "indexed": false,
          "internalType": "uint256",
          "name": "amount",
          "type": "uint256"
        }
      ],
      "name": "Refund",
      "type": "event"
    },
    {
      "anonymous": false,
      "inputs": [],
      "name": "Resumed",
      "type": "event"
    },
    {
      "anonymous": false,
      "inputs": [
        {
          "indexed": true,
          "internalType": "address",
          "name": "owner",
          "type": "address"
        },
        {
          "indexed": false,
          "internalType": "uint256",
          "name": "amount",
          "type": "uint256"
        }
      ],
      "name": "Withdrawal",
      "type": "event"
    },
    {
      "inputs": [],
      "name": "contribute",
      "outputs": [],
      "stateMutability": "payable",
      "type": "function"
    },
    {
      "inputs": [
        {
          "internalType": "address",
          "name": "",
          "type": "address"
        }
      ],
      "name": "contributions",
      "outputs": [
        {
          "internalType": "uint256",
          "name": "",
          "type": "uint256"
        }
      ],
      "stateMutability": "view",
      "type": "function"
    },
    {
      "inputs": [
        {
          "internalType": "uint256",
          "name": "",
          "type": "uint256"
        }
      ],
      "name": "contributors",
      "outputs": [
        {
          "internalType": "address",
          "name": "contributor",
          "type": "address"
        },
        {
          "internalType": "uint256",
          "name": "amount",
          "type": "uint256"
        },
        {
          "internalType": "uint256",
          "name": "timestamp",
          "type": "uint256"
        }
      ],
      "stateMutability": "view",
      "type": "function"
    },
    {
      "inputs": [],
      "name": "deadline",
      "outputs": [
        {
          "internalType": "uint256",
          "name": "",
          "type": "uint256"
        }
      ],
      "stateMutability": "view",
      "type": "function"
    },
    {
      "inputs": [],
      "name": "fundingGoal",
      "outputs": [
        {
          "internalType": "uint256",
          "name": "",
          "type": "uint256"
        }
      ],
      "stateMutability": "view",
      "type": "function"
    },
    {
      "inputs": [],
      "name": "getContributors",
      "outputs": [
        {
          "components": [
            {
              "internalType": "address",
              "name": "contributor",
              "type": "address"
            },
            {
              "internalType": "uint256",
              "name": "amount",
              "type": "uint256"
            },
            {
              "internalType": "uint256",
              "name": "timestamp",
              "type": "uint256"
            }
          ],
          "internalType": "struct Crowdfunding.ContributionStruct[]",
          "name": "",
          "type": "tuple[]"
        }
      ],
      "stateMutability": "view",
      "type": "function"
    },
    {
      "inputs": [],
      "name": "getTimeLeft",
      "outputs": [
        {
          "internalType": "uint256",
          "name": "",
          "type": "uint256"
        }
      ],
      "stateMutability": "view",
      "type": "function"
    },
    {
      "inputs": [],
      "name": "owner",
      "outputs": [
        {
          "internalType": "address",
          "name": "",
          "type": "address"
        }
      ],
      "stateMutability": "view",
      "type": "function"
    },
    {
      "inputs": [],
      "name": "pause",
      "outputs": [],
      "stateMutability": "nonpayable",
      "type": "function"
    },
    {
      "inputs": [],
      "name": "paused",
      "outputs": [
        {
          "internalType": "bool",
          "name": "",
          "type": "bool"
        }
      ],
      "stateMutability": "view",
      "type": "function"
    },
    {
      "inputs": [],
      "name": "refund",
      "outputs": [],
      "stateMutability": "nonpayable",
      "type": "function"
    },
    {
      "inputs": [],
      "name": "resume",
      "outputs": [],
      "stateMutability": "nonpayable",
      "type": "function"
    },
    {
      "inputs": [
        {
          "internalType": "uint256",
          "name": "_deadline",
          "type": "uint256"
        }
      ],
      "name": "setDeadline",
      "outputs": [],
      "stateMutability": "nonpayable",
      "type": "function"
    },
    {
      "inputs": [],
      "name": "totalContributed",
      "outputs": [
        {
          "internalType": "uint256",
          "name": "",
          "type": "uint256"
        }
      ],
      "stateMutability": "view",
      "type": "function"
    },
    {
      "inputs": [],
      "name": "withdraw",
      "outputs": [],
      "stateMutability": "nonpayable",
      "type": "function"
    }
  ],
  "bytecode": "0x608060405234801561001057600080fd5b50604051611b09380380611b0983398181016040528101906100329190610162565b60008211610075576040517f08c379a000000000000000000000000000000000000000000000000000000000815260040161006c90610225565b60405180910390fd5b4281116100b7576040517f08c379a00000000000000000000000000000000000000000000000000000000081526004016100ae90610291565b60405180910390fd5b336000806101000a81548173ffffffffffffffffffffffffffffffffffffffff021916908373ffffffffffffffffffffffffffffffffffffffff16021790555081600181905550806002819055506000600460006101000a81548160ff02191690831515021790555050506102b1565b600080fd5b6000819050919050565b61013f8161012c565b811461014a57600080fd5b50565b60008151905061015c81610136565b92915050565b6000806040838503121561017957610178610127565b5b60006101878582860161014d565b92505060206101988582860161014d565b9150509250929050565b600082825260208201905092915050565b7f46756e64696e6720676f616c206d75737420626520677265617465722074686160008201527f6e20300000000000000000000000000000000000000000000000000000000000602082015250565b600061020f6023836101a2565b915061021a826101b3565b604082019050919050565b6000602082019050818103600083015261023e81610202565b9050919050565b7f446561646c696e65206d75737420626520696e20667574757265000000000000600082015250565b600061027b601a836101a2565b915061028682610245565b602082019050919050565b600060208201905081810360008301526102aa8161026e565b9050919050565b611849806102c06000396000f3fe6080604052600436106100e85760003560e01c8063590e1ae31161008a5780638da5cb5b116100595780638da5cb5b1461029a578063af157c19146102c5578063c7e284b8146102f0578063d7bb99ba1461031b576100e8565b8063590e1ae3146102165780635c975abb1461022d5780637a3a0e84146102585780638456cb5914610283576100e8565b806329dcb0cf116100c657806329dcb0cf146101585780633cb5d100146101835780633ccfd60b146101c257806342e94c90146101d9576100e8565b8063023f4147146100ed578063046f7da214610118578063195199f61461012f575b600080fd5b3480156100f957600080fd5b50610102610325565b60405161010f9190610eb7565b60405180910390f35b34801561012457600080fd5b5061012d61032b565b005b34801561013b57600080fd5b5061015660048036038101906101519190610f03565b610402565b005b34801561016457600080fd5b5061016d6104dc565b60405161017a9190610eb7565b60405180910390f35b34801561018f57600080fd5b506101aa60048036038101906101a59190610f03565b6104e2565b6040516101b993929190610f71565b60405180910390f35b3480156101ce57600080fd5b506101d761053c565b005b3480156101e557600080fd5b5061020060048036038101906101fb9190610fd4565b6107dd565b60405161020d9190610eb7565b60405180910390f35b34801561022257600080fd5b5061022b6107f5565b005b34801561023957600080fd5b50610242610a4a565b60405161024f919061101c565b60405180910390f35b34801561026457600080fd5b5061026d610a5d565b60405161027a9190610eb7565b60405180910390f35b34801561028f57600080fd5b50610298610a63565b005b3480156102a657600080fd5b506102af610b3a565b6040516102bc9190611037565b60405180910390f35b3480156102d157600080fd5b506102da610b5e565b6040516102e79190611161565b60405180910390f35b3480156102fc57600080fd5b50610305610c27565b6040516103129190610eb7565b60405180910390f35b610323610c4f565b005b60035481565b60008054906101000a900473ffffffffffffffffffffffffffffffffffffffff1673ffffffffffffffffffffffffffffffffffffffff163373ffffffffffffffffffffffffffffffffffffffff16146103b9576040517f08c379a00000000000000000000000000000000000000000000000000000000081526004016103b0906111e0565b60405180910390fd5b6000600460006101000a81548160ff0219169083151502179055507f62451d457bc659158be6e6247f56ec1df424a5c7597f71c20c2bc44e0965c8f960405160405180910390a1565b60008054906101000a900473ffffffffffffffffffffffffffffffffffffffff1673ffffffffffffffffffffffffffffffffffffffff163373ffffffffffffffffffffffffffffffffffffffff1614610490576040517f08c379a0000000000000000000000000000000000000000000000000000000008152600401610487906111e0565b60405180910390fd5b4281116104d2576040517f08c379a00000000000000000000000000000000000000000000000000000000081526004016104c99061124c565b60405180910390fd5b8060028190555050565b60025481565b600681815481106104f257600080fd5b90600052602060002090600302016000915090508060000160009054906101000a900473ffffffffffffffffffffffffffffffffffffffff16908060010154908060020154905083565b60008054906101000a900473ffffffffffffffffffffffffffffffffffffffff1673ffffffffffffffffffffffffffffffffffffffff163373ffffffffffffffffffffffffffffffffffffffff16146105ca576040517f08c379a00000000000000000000000000000000000000000000000000000000081526004016105c1906111e0565b60405180910390fd5b60025442101561060f576040517f08c379a0000000000000000000000000000000000000000000000000000000008152600401610606906112b8565b60405180910390fd5b6001546003541015610656576040517f08c379a000000000000000000000000000000000000000000000000000000000815260040161064d90611324565b60405180910390fd5b60004790506000810361069e576040517f08c379a000000000000000000000000000000000000000000000000000000000815260040161069590611390565b60405180910390fd5b60008060009054906101000a900473ffffffffffffffffffffffffffffffffffffffff1673ffffffffffffffffffffffffffffffffffffffff16826040516106e5906113e1565b60006040518083038185875af1925050503d8060008114610722576040519150601f19603f3d011682016040523d82523d6000602084013e610727565b606091505b505090508061076b576040517f08c379a000000000000000000000000000000000000000000000000000000000815260040161076290611442565b60405180910390fd5b60008054906101000a900473ffffffffffffffffffffffffffffffffffffffff1673ffffffffffffffffffffffffffffffffffffffff167f7fcf532c15f0a6db0bd6d0e038bea71d30d808c7d98cb3bf7268a95bf5081b65836040516107d19190610eb7565b60405180910390a25050565b60056020528060005260406000206000915090505481565b60025442101561083a576040517f08c379a0000000000000000000000000000000000000000000000000000000008152600401610831906114ae565b60405180910390fd5b60015460035410610880576040517f08c379a00000000000000000000000000000000000000000000000000000000081526004016108779061151a565b60405180910390fd5b6000600560003373ffffffffffffffffffffffffffffffffffffffff1673ffffffffffffffffffffffffffffffffffffffff16815260200190815260200160002054905060008111610907576040517f08c379a00000000000000000000000000000000000000000000000000000000081526004016108fe90611586565b60405180910390fd5b6000600560003373ffffffffffffffffffffffffffffffffffffffff1673ffffffffffffffffffffffffffffffffffffffff1681526020019081526020016000208190555060003373ffffffffffffffffffffffffffffffffffffffff1682604051610972906113e1565b60006040518083038185875af1925050503d80600081146109af576040519150601f19603f3d011682016040523d82523d6000602084013e6109b4565b606091505b50509050806109f8576040517f08c379a00000000000000000000000000000000000000000000000000000000081526004016109ef906115f2565b60405180910390fd5b3373ffffffffffffffffffffffffffffffffffffffff167fbb28353e4598c3b9199101a66e0989549b659a59a54d2c27fbb183f1932c8e6d83604051610a3e9190610eb7565b60405180910390a25050565b600460009054906101000a900460ff1681565b60015481565b60008054906101000a900473ffffffffffffffffffffffffffffffffffffffff1673ffffffffffffffffffffffffffffffffffffffff163373ffffffffffffffffffffffffffffffffffffffff1614610af1576040517f08c379a0000000000000000000000000000000000000000000000000000000008152600401610ae8906111e0565b60405180910390fd5b6001600460006101000a81548160ff0219169083151502179055507f9e87fac88ff661f02d44f95383c817fece4bce600a3dab7a54406878b965e75260405160405180910390a1565b60008054906101000a900473ffffffffffffffffffffffffffffffffffffffff1681565b60606006805480602002602001604051908101604052809291908181526020016000905b82821015610c1e57838290600052602060002090600302016040518060600160405290816000820160009054906101000a900473ffffffffffffffffffffffffffffffffffffffff1673ffffffffffffffffffffffffffffffffffffffff1673ffffffffffffffffffffffffffffffffffffffff1681526020016001820154815260200160028201548152505081526020019060010190610b82565b50505050905090565b60006002544210610c3b5760009050610c4c565b42600254610c499190611641565b90505b90565b600460009054906101000a900460ff1615610c9f576040517f08c379a0000000000000000000000000000000000000000000000000000000008152600401610c96906116c1565b60405180910390fd5b6002544210610ce3576040517f08c379a0000000000000000000000000000000000000000000000000000000008152600401610cda9061172d565b60405180910390fd5b60003411610d26576040517f08c379a0000000000000000000000000000000000000000000000000000000008152600401610d1d906117bf565b60405180910390fd5b600660405180606001604052803373ffffffffffffffffffffffffffffffffffffffff16815260200134815260200142815250908060018154018082558091505060019003906000526020600020906003020160009091909190915060008201518160000160006101000a81548173ffffffffffffffffffffffffffffffffffffffff021916908373ffffffffffffffffffffffffffffffffffffffff1602179055506020820151816001015560408201518160020155505034600560003373ffffffffffffffffffffffffffffffffffffffff1673ffffffffffffffffffffffffffffffffffffffff1681526020019081526020016000206000828254610e2e91906117df565b925050819055503460036000828254610e4791906117df565b925050819055503373ffffffffffffffffffffffffffffffffffffffff167f4d154d4aae216bed6d0926db77c00df2b57c6b5ba4eee05775de20facede3a7b34604051610e949190610eb7565b60405180910390a2565b6000819050919050565b610eb181610e9e565b82525050565b6000602082019050610ecc6000830184610ea8565b92915050565b600080fd5b610ee081610e9e565b8114610eeb57600080fd5b50565b600081359050610efd81610ed7565b92915050565b600060208284031215610f1957610f18610ed2565b5b6000610f2784828501610eee565b91505092915050565b600073ffffffffffffffffffffffffffffffffffffffff82169050919050565b6000610f5b82610f30565b9050919050565b610f6b81610f50565b82525050565b6000606082019050610f866000830186610f62565b610f936020830185610ea8565b610fa06040830184610ea8565b949350505050565b610fb181610f50565b8114610fbc57600080fd5b50565b600081359050610fce81610fa8565b92915050565b600060208284031215610fea57610fe9610ed2565b5b6000610ff884828501610fbf565b91505092915050565b60008115159050919050565b61101681611001565b82525050565b6000602082019050611031600083018461100d565b92915050565b600060208201905061104c6000830184610f62565b92915050565b600081519050919050565b600082825260208201905092915050565b6000819050602082019050919050565b61108781610f50565b82525050565b61109681610e9e565b82525050565b6060820160008201516110b2600085018261107e565b5060208201516110c5602085018261108d565b5060408201516110d8604085018261108d565b50505050565b60006110ea838361109c565b60608301905092915050565b6000602082019050919050565b600061110e82611052565b611118818561105d565b93506111238361106e565b8060005b8381101561115457815161113b88826110de565b9750611146836110f6565b925050600181019050611127565b5085935050505092915050565b6000602082019050818103600083015261117b8184611103565b905092915050565b600082825260208201905092915050565b7f4f6e6c79206f776e657200000000000000000000000000000000000000000000600082015250565b60006111ca600a83611183565b91506111d582611194565b602082019050919050565b600060208201905081810360008301526111f9816111bd565b9050919050565b7f446561646c696e65206d75737420626520696e20667574757265000000000000600082015250565b6000611236601a83611183565b915061124182611200565b602082019050919050565b6000602082019050818103600083015261126581611229565b9050919050565b7f43616e6e6f74207769746864726177206265666f726520646561646c696e6500600082015250565b60006112a2601f83611183565b91506112ad8261126c565b602082019050919050565b600060208201905081810360008301526112d181611295565b9050919050565b7f46756e64696e6720676f616c206e6f7420726561636865640000000000000000600082015250565b600061130e601883611183565b9150611319826112d8565b602082019050919050565b6000602082019050818103600083015261133d81611301565b9050919050565b7f4e6f2066756e647320746f207769746864726177000000000000000000000000600082015250565b600061137a601483611183565b915061138582611344565b602082019050919050565b600060208201905081810360008301526113a98161136d565b9050919050565b600081905092915050565b50565b60006113cb6000836113b0565b91506113d6826113bb565b600082019050919050565b60006113ec826113be565b9150819050919050565b7f5769746864726177616c206661696c6564000000000000000000000000000000600082015250565b600061142c601183611183565b9150611437826113f6565b602082019050919050565b6000602082019050818103600083015261145b8161141f565b9050919050565b7f526566756e647320617661696c61626c6520616674657220646561646c696e65600082015250565b6000611498602083611183565b91506114a382611462565b602082019050919050565b600060208201905081810360008301526114c78161148b565b9050919050565b7f476f616c20776173206d65742c206e6f20726566756e64730000000000000000600082015250565b6000611504601883611183565b915061150f826114ce565b602082019050919050565b60006020820190508181036000830152611533816114f7565b9050919050565b7f4e6f20636f6e747269627574696f6e20746f20726566756e6400000000000000600082015250565b6000611570601983611183565b915061157b8261153a565b602082019050919050565b6000602082019050818103600083015261159f81611563565b9050919050565b7f526566756e64206661696c656400000000000000000000000000000000000000600082015250565b60006115dc600d83611183565b91506115e7826115a6565b602082019050919050565b6000602082019050818103600083015261160b816115cf565b9050919050565b7f4e487b7100000000000000000000000000000000000000000000000000000000600052601160045260246000fd5b600061164c82610e9e565b915061165783610e9e565b925082820390508181111561166f5761166e611612565b5b92915050565b7f43616d706169676e206973207061757365640000000000000000000000000000600082015250565b60006116ab601283611183565b91506116b682611675565b602082019050919050565b600060208201905081810360008301526116da8161169e565b9050919050565b7f43726f776466756e64696e6720646561646c696e652070617373656400000000600082015250565b6000611717601c83611183565b9150611722826116e1565b602082019050919050565b600060208201905081810360008301526117468161170a565b9050919050565b7f436f6e747269627574696f6e206d75737420626520677265617465722074686160008201527f6e20300000000000000000000000000000000000000000000000000000000000602082015250565b60006117a9602383611183565b91506117b48261174d565b604082019050919050565b600060208201905081810360008301526117d88161179c565b9050919050565b60006117ea82610e9e565b91506117f583610e9e565b925082820190508082111561180d5761180c611612565b5b9291505056fea2646970667358221220327a3f441a73aca3781c2b04f56fab9ee99494aca53b270aeaafe7aceb76a18064736f6c634300081c0033",
  "linkReferences": {},
  "deployedLinkReferences": {}
}